{
  "contractName": "Consumer",
  "abi": [
    {
      "inputs": [],
      "name": "GetBalance",
      "outputs": [
        {
          "internalType": "uint256",
          "name": "",
          "type": "uint256"
        }
      ],
      "stateMutability": "view",
      "type": "function"
    },
    {
      "inputs": [],
      "name": "deposit",
      "outputs": [],
      "stateMutability": "payable",
      "type": "function"
    }
  ],
  "bytecode": "0x608060405234801561001057600080fd5b5060c98061001f6000396000f3fe60806040526004361060265760003560e01c8063d0e30db014602b578063f8f8a912146033575b600080fd5b60316059565b005b348015603e57600080fd5b506045605b565b60405160509190607a565b60405180910390f35b565b600047905090565b6000819050919050565b6074816063565b82525050565b6000602082019050608d6000830184606d565b9291505056fea26469706673582212204a65dedcae75b6893509e8c0b4a069279d1da9501b84c3c73385dc57123869ed64736f6c63430008100033",
  "immutableReferences": {},
  "source": "// SPDX-License-Identifier: MIT\r\npragma solidity 0.8.16;\r\n\r\ncontract Consumer {\r\n    function GetBalance() public view returns (uint256) {\r\n        return address(this).balance;\r\n    }\r\n    function deposit() public payable {}\r\n}\r\n\r\ncontract SmartContractWallet {\r\n    address payable public owner;\r\n\r\n    mapping(address => uint256) public allowance;\r\n    mapping(address => bool) public IsallowtoSend;\r\n    mapping(address => bool) public Guardians;\r\n    address payable nextOwner;\r\n    mapping(address => mapping(address => bool)) NextOwnerVotedBool;\r\n    uint256 GuardianResetCount;\r\n    uint256 public constant ConfirmationForGuardianReset = 3;\r\n\r\n    constructor() {\r\n        owner = payable(msg.sender);\r\n    }\r\n\r\n    function Setguardians(address _Guardians, bool _isGuardian) public {\r\n        require(msg.sender == owner, \"you are not the owner,aboting\");\r\n        Guardians[_Guardians] = _isGuardian;\r\n    }\r\n\r\n    function ProposedOwner(address payable _NewOwner) public {\r\n        require(Guardians[msg.sender], \"you are not a guardian,Aborting\");\r\n        require(\r\n            NextOwnerVotedBool[_NewOwner][msg.sender] == false,\r\n            \"you already voted aborting\"\r\n        );\r\n        if (_NewOwner != nextOwner) {\r\n            nextOwner = _NewOwner;\r\n            GuardianResetCount = 0;\r\n        }\r\n        GuardianResetCount++;\r\n        if (GuardianResetCount >= ConfirmationForGuardianReset) {\r\n            owner = nextOwner;\r\n            nextOwner = payable(address(0));\r\n        }\r\n    }\r\n\r\n    function SetAllowance(address _for, uint256 _amount) public {\r\n        require(msg.sender == owner, \"you are not the owner,aboting\");\r\n        allowance[_for] == _amount;\r\n\r\n        if (_amount > 0) {\r\n            IsallowtoSend[_for] = true;\r\n        } else {\r\n            IsallowtoSend[_for] = false;\r\n        }\r\n    }\r\n\r\n    function transfer(\r\n        address payable _to,\r\n        uint256 _amount,\r\n        bytes memory _payload\r\n    ) public returns (bytes memory) {\r\n        //require(msg.sender == owner, \"you are not the owner aborting\");\r\n        if (msg.sender != owner) {\r\n            require(\r\n                allowance[msg.sender] >= _amount,\r\n                \"You are trying to send more than you allowed,aborting\"\r\n            );\r\n            require(\r\n                IsallowtoSend[msg.sender],\r\n                \"You are not allowed to send anything,aborting\"\r\n            );\r\n\r\n            allowance[msg.sender] -= _amount;\r\n        }\r\n\r\n        (bool success, bytes memory returndata) = _to.call{value: _amount}(\r\n            _payload\r\n        );\r\n        require(success, \"aborting call was not successful\");\r\n        return returndata;\r\n    }\r\n\r\n    receive() external payable {}\r\n}\r\n",
  "sourcePath": "C:\\Users\\Asus\\OneDrive\\Desktop\\SmartWallet\\contracts\\SmartWallet.sol",
  "compiler": {
    "name": "solc",
    "version": "0.8.16+commit.07a7930e.Emscripten.clang"
  },
  "schemaVersion": "3.4.11",
  "updatedAt": "2023-05-04T17:16:22.590Z",
  "devdoc": {
    "kind": "dev",
    "methods": {},
    "version": 1
  },
  "userdoc": {
    "kind": "user",
    "methods": {},
    "version": 1
  }
}