{
  "contractName": "SmartContractWallet",
  "abi": [
    {
      "inputs": [],
      "stateMutability": "nonpayable",
      "type": "constructor"
    },
    {
      "inputs": [],
      "name": "ConfirmationForGuardianReset",
      "outputs": [
        {
          "internalType": "uint256",
          "name": "",
          "type": "uint256"
        }
      ],
      "stateMutability": "view",
      "type": "function"
    },
    {
      "inputs": [
        {
          "internalType": "address",
          "name": "",
          "type": "address"
        }
      ],
      "name": "Guardians",
      "outputs": [
        {
          "internalType": "bool",
          "name": "",
          "type": "bool"
        }
      ],
      "stateMutability": "view",
      "type": "function"
    },
    {
      "inputs": [
        {
          "internalType": "address",
          "name": "",
          "type": "address"
        }
      ],
      "name": "IsallowtoSend",
      "outputs": [
        {
          "internalType": "bool",
          "name": "",
          "type": "bool"
        }
      ],
      "stateMutability": "view",
      "type": "function"
    },
    {
      "inputs": [
        {
          "internalType": "address",
          "name": "",
          "type": "address"
        }
      ],
      "name": "allowance",
      "outputs": [
        {
          "internalType": "uint256",
          "name": "",
          "type": "uint256"
        }
      ],
      "stateMutability": "view",
      "type": "function"
    },
    {
      "inputs": [],
      "name": "owner",
      "outputs": [
        {
          "internalType": "address payable",
          "name": "",
          "type": "address"
        }
      ],
      "stateMutability": "view",
      "type": "function"
    },
    {
      "stateMutability": "payable",
      "type": "receive"
    },
    {
      "inputs": [
        {
          "internalType": "address",
          "name": "_Guardians",
          "type": "address"
        },
        {
          "internalType": "bool",
          "name": "_isGuardian",
          "type": "bool"
        }
      ],
      "name": "Setguardians",
      "outputs": [],
      "stateMutability": "nonpayable",
      "type": "function"
    },
    {
      "inputs": [
        {
          "internalType": "address payable",
          "name": "_NewOwner",
          "type": "address"
        }
      ],
      "name": "ProposedOwner",
      "outputs": [],
      "stateMutability": "nonpayable",
      "type": "function"
    },
    {
      "inputs": [
        {
          "internalType": "address",
          "name": "_for",
          "type": "address"
        },
        {
          "internalType": "uint256",
          "name": "_amount",
          "type": "uint256"
        }
      ],
      "name": "SetAllowance",
      "outputs": [],
      "stateMutability": "nonpayable",
      "type": "function"
    },
    {
      "inputs": [
        {
          "internalType": "address payable",
          "name": "_to",
          "type": "address"
        },
        {
          "internalType": "uint256",
          "name": "_amount",
          "type": "uint256"
        },
        {
          "internalType": "bytes",
          "name": "_payload",
          "type": "bytes"
        }
      ],
      "name": "transfer",
      "outputs": [
        {
          "internalType": "bytes",
          "name": "",
          "type": "bytes"
        }
      ],
      "stateMutability": "nonpayable",
      "type": "function"
    }
  ],
  "bytecode": "0x608060405234801561001057600080fd5b50336000806101000a81548173ffffffffffffffffffffffffffffffffffffffff021916908373ffffffffffffffffffffffffffffffffffffffff160217905550611378806100606000396000f3fe60806040526004361061008a5760003560e01c80638ba97a01116100595780638ba97a01146101625780638da5cb5b1461018b578063a3eddcf6146101b6578063be45fd62146101e1578063ea1f73291461021e57610091565b806322c27d9f14610096578063235cae46146100bf5780633e5beab9146100fc5780633e7279a31461013957610091565b3661009157005b600080fd5b3480156100a257600080fd5b506100bd60048036038101906100b89190610b05565b61025b565b005b3480156100cb57600080fd5b506100e660048036038101906100e19190610b70565b610520565b6040516100f39190610bb8565b60405180910390f35b34801561010857600080fd5b50610123600480360381019061011e9190610b70565b610540565b6040516101309190610bec565b60405180910390f35b34801561014557600080fd5b50610160600480360381019061015b9190610c33565b610558565b005b34801561016e57600080fd5b5061018960048036038101906101849190610c9f565b6106eb565b005b34801561019757600080fd5b506101a06107d4565b6040516101ad9190610cee565b60405180910390f35b3480156101c257600080fd5b506101cb6107f8565b6040516101d89190610bec565b60405180910390f35b3480156101ed57600080fd5b5061020860048036038101906102039190610e4f565b6107fd565b6040516102159190610f3d565b60405180910390f35b34801561022a57600080fd5b5061024560048036038101906102409190610b70565b610a73565b6040516102529190610bb8565b60405180910390f35b600360003373ffffffffffffffffffffffffffffffffffffffff1673ffffffffffffffffffffffffffffffffffffffff16815260200190815260200160002060009054906101000a900460ff166102e7576040517f08c379a00000000000000000000000000000000000000000000000000000000081526004016102de90610fbc565b60405180910390fd5b60001515600560008373ffffffffffffffffffffffffffffffffffffffff1673ffffffffffffffffffffffffffffffffffffffff16815260200190815260200160002060003373ffffffffffffffffffffffffffffffffffffffff1673ffffffffffffffffffffffffffffffffffffffff16815260200190815260200160002060009054906101000a900460ff161515146103b7576040517f08c379a00000000000000000000000000000000000000000000000000000000081526004016103ae90611028565b60405180910390fd5b600460009054906101000a900473ffffffffffffffffffffffffffffffffffffffff1673ffffffffffffffffffffffffffffffffffffffff168173ffffffffffffffffffffffffffffffffffffffff16146104565780600460006101000a81548173ffffffffffffffffffffffffffffffffffffffff021916908373ffffffffffffffffffffffffffffffffffffffff16021790555060006006819055505b6006600081548092919061046990611077565b919050555060036006541061051d57600460009054906101000a900473ffffffffffffffffffffffffffffffffffffffff166000806101000a81548173ffffffffffffffffffffffffffffffffffffffff021916908373ffffffffffffffffffffffffffffffffffffffff1602179055506000600460006101000a81548173ffffffffffffffffffffffffffffffffffffffff021916908373ffffffffffffffffffffffffffffffffffffffff1602179055505b50565b60036020528060005260406000206000915054906101000a900460ff1681565b60016020528060005260406000206000915090505481565b60008054906101000a900473ffffffffffffffffffffffffffffffffffffffff1673ffffffffffffffffffffffffffffffffffffffff163373ffffffffffffffffffffffffffffffffffffffff16146105e6576040517f08c379a00000000000000000000000000000000000000000000000000000000081526004016105dd9061110b565b60405180910390fd5b80600160008473ffffffffffffffffffffffffffffffffffffffff1673ffffffffffffffffffffffffffffffffffffffff1681526020019081526020016000205050600081111561068e576001600260008473ffffffffffffffffffffffffffffffffffffffff1673ffffffffffffffffffffffffffffffffffffffff16815260200190815260200160002060006101000a81548160ff0219169083151502179055506106e7565b6000600260008473ffffffffffffffffffffffffffffffffffffffff1673ffffffffffffffffffffffffffffffffffffffff16815260200190815260200160002060006101000a81548160ff0219169083151502179055505b5050565b60008054906101000a900473ffffffffffffffffffffffffffffffffffffffff1673ffffffffffffffffffffffffffffffffffffffff163373ffffffffffffffffffffffffffffffffffffffff1614610779576040517f08c379a00000000000000000000000000000000000000000000000000000000081526004016107709061110b565b60405180910390fd5b80600360008473ffffffffffffffffffffffffffffffffffffffff1673ffffffffffffffffffffffffffffffffffffffff16815260200190815260200160002060006101000a81548160ff0219169083151502179055505050565b60008054906101000a900473ffffffffffffffffffffffffffffffffffffffff1681565b600381565b606060008054906101000a900473ffffffffffffffffffffffffffffffffffffffff1673ffffffffffffffffffffffffffffffffffffffff163373ffffffffffffffffffffffffffffffffffffffff16146109b75782600160003373ffffffffffffffffffffffffffffffffffffffff1673ffffffffffffffffffffffffffffffffffffffff1681526020019081526020016000205410156108d4576040517f08c379a00000000000000000000000000000000000000000000000000000000081526004016108cb9061119d565b60405180910390fd5b600260003373ffffffffffffffffffffffffffffffffffffffff1673ffffffffffffffffffffffffffffffffffffffff16815260200190815260200160002060009054906101000a900460ff16610960576040517f08c379a00000000000000000000000000000000000000000000000000000000081526004016109579061122f565b60405180910390fd5b82600160003373ffffffffffffffffffffffffffffffffffffffff1673ffffffffffffffffffffffffffffffffffffffff16815260200190815260200160002060008282546109af919061124f565b925050819055505b6000808573ffffffffffffffffffffffffffffffffffffffff1685856040516109e091906112bf565b60006040518083038185875af1925050503d8060008114610a1d576040519150601f19603f3d011682016040523d82523d6000602084013e610a22565b606091505b509150915081610a67576040517f08c379a0000000000000000000000000000000000000000000000000000000008152600401610a5e90611322565b60405180910390fd5b80925050509392505050565b60026020528060005260406000206000915054906101000a900460ff1681565b6000604051905090565b600080fd5b600080fd5b600073ffffffffffffffffffffffffffffffffffffffff82169050919050565b6000610ad282610aa7565b9050919050565b610ae281610ac7565b8114610aed57600080fd5b50565b600081359050610aff81610ad9565b92915050565b600060208284031215610b1b57610b1a610a9d565b5b6000610b2984828501610af0565b91505092915050565b6000610b3d82610aa7565b9050919050565b610b4d81610b32565b8114610b5857600080fd5b50565b600081359050610b6a81610b44565b92915050565b600060208284031215610b8657610b85610a9d565b5b6000610b9484828501610b5b565b91505092915050565b60008115159050919050565b610bb281610b9d565b82525050565b6000602082019050610bcd6000830184610ba9565b92915050565b6000819050919050565b610be681610bd3565b82525050565b6000602082019050610c016000830184610bdd565b92915050565b610c1081610bd3565b8114610c1b57600080fd5b50565b600081359050610c2d81610c07565b92915050565b60008060408385031215610c4a57610c49610a9d565b5b6000610c5885828601610b5b565b9250506020610c6985828601610c1e565b9150509250929050565b610c7c81610b9d565b8114610c8757600080fd5b50565b600081359050610c9981610c73565b92915050565b60008060408385031215610cb657610cb5610a9d565b5b6000610cc485828601610b5b565b9250506020610cd585828601610c8a565b9150509250929050565b610ce881610ac7565b82525050565b6000602082019050610d036000830184610cdf565b92915050565b600080fd5b600080fd5b6000601f19601f8301169050919050565b7f4e487b7100000000000000000000000000000000000000000000000000000000600052604160045260246000fd5b610d5c82610d13565b810181811067ffffffffffffffff82111715610d7b57610d7a610d24565b5b80604052505050565b6000610d8e610a93565b9050610d9a8282610d53565b919050565b600067ffffffffffffffff821115610dba57610db9610d24565b5b610dc382610d13565b9050602081019050919050565b82818337600083830152505050565b6000610df2610ded84610d9f565b610d84565b905082815260208101848484011115610e0e57610e0d610d0e565b5b610e19848285610dd0565b509392505050565b600082601f830112610e3657610e35610d09565b5b8135610e46848260208601610ddf565b91505092915050565b600080600060608486031215610e6857610e67610a9d565b5b6000610e7686828701610af0565b9350506020610e8786828701610c1e565b925050604084013567ffffffffffffffff811115610ea857610ea7610aa2565b5b610eb486828701610e21565b9150509250925092565b600081519050919050565b600082825260208201905092915050565b60005b83811015610ef8578082015181840152602081019050610edd565b60008484015250505050565b6000610f0f82610ebe565b610f198185610ec9565b9350610f29818560208601610eda565b610f3281610d13565b840191505092915050565b60006020820190508181036000830152610f578184610f04565b905092915050565b600082825260208201905092915050565b7f796f7520617265206e6f74206120677561726469616e2c41626f7274696e6700600082015250565b6000610fa6601f83610f5f565b9150610fb182610f70565b602082019050919050565b60006020820190508181036000830152610fd581610f99565b9050919050565b7f796f7520616c726561647920766f7465642061626f7274696e67000000000000600082015250565b6000611012601a83610f5f565b915061101d82610fdc565b602082019050919050565b6000602082019050818103600083015261104181611005565b9050919050565b7f4e487b7100000000000000000000000000000000000000000000000000000000600052601160045260246000fd5b600061108282610bd3565b91507fffffffffffffffffffffffffffffffffffffffffffffffffffffffffffffffff82036110b4576110b3611048565b5b600182019050919050565b7f796f7520617265206e6f7420746865206f776e65722c61626f74696e67000000600082015250565b60006110f5601d83610f5f565b9150611100826110bf565b602082019050919050565b60006020820190508181036000830152611124816110e8565b9050919050565b7f596f752061726520747279696e6720746f2073656e64206d6f7265207468616e60008201527f20796f7520616c6c6f7765642c61626f7274696e670000000000000000000000602082015250565b6000611187603583610f5f565b91506111928261112b565b604082019050919050565b600060208201905081810360008301526111b68161117a565b9050919050565b7f596f7520617265206e6f7420616c6c6f77656420746f2073656e6420616e797460008201527f68696e672c61626f7274696e6700000000000000000000000000000000000000602082015250565b6000611219602d83610f5f565b9150611224826111bd565b604082019050919050565b600060208201905081810360008301526112488161120c565b9050919050565b600061125a82610bd3565b915061126583610bd3565b925082820390508181111561127d5761127c611048565b5b92915050565b600081905092915050565b600061129982610ebe565b6112a38185611283565b93506112b3818560208601610eda565b80840191505092915050565b60006112cb828461128e565b915081905092915050565b7f61626f7274696e672063616c6c20776173206e6f74207375636365737366756c600082015250565b600061130c602083610f5f565b9150611317826112d6565b602082019050919050565b6000602082019050818103600083015261133b816112ff565b905091905056fea2646970667358221220fa6efe9e837ffd025625adf4676a412ff57fbb057705064b4395abd804bf6c2864736f6c63430008100033",
  "immutableReferences": {},
  "source": "// SPDX-License-Identifier: MIT\r\npragma solidity 0.8.16;\r\n\r\ncontract Consumer {\r\n    function GetBalance() public view returns (uint256) {\r\n        return address(this).balance;\r\n    }\r\n    function deposit() public payable {}\r\n}\r\n\r\ncontract SmartContractWallet {\r\n    address payable public owner;\r\n\r\n    mapping(address => uint256) public allowance;\r\n    mapping(address => bool) public IsallowtoSend;\r\n    mapping(address => bool) public Guardians;\r\n    address payable nextOwner;\r\n    mapping(address => mapping(address => bool)) NextOwnerVotedBool;\r\n    uint256 GuardianResetCount;\r\n    uint256 public constant ConfirmationForGuardianReset = 3;\r\n\r\n    constructor() {\r\n        owner = payable(msg.sender);\r\n    }\r\n\r\n    function Setguardians(address _Guardians, bool _isGuardian) public {\r\n        require(msg.sender == owner, \"you are not the owner,aboting\");\r\n        Guardians[_Guardians] = _isGuardian;\r\n    }\r\n\r\n    function ProposedOwner(address payable _NewOwner) public {\r\n        require(Guardians[msg.sender], \"you are not a guardian,Aborting\");\r\n        require(\r\n            NextOwnerVotedBool[_NewOwner][msg.sender] == false,\r\n            \"you already voted aborting\"\r\n        );\r\n        if (_NewOwner != nextOwner) {\r\n            nextOwner = _NewOwner;\r\n            GuardianResetCount = 0;\r\n        }\r\n        GuardianResetCount++;\r\n        if (GuardianResetCount >= ConfirmationForGuardianReset) {\r\n            owner = nextOwner;\r\n            nextOwner = payable(address(0));\r\n        }\r\n    }\r\n\r\n    function SetAllowance(address _for, uint256 _amount) public {\r\n        require(msg.sender == owner, \"you are not the owner,aboting\");\r\n        allowance[_for] == _amount;\r\n\r\n        if (_amount > 0) {\r\n            IsallowtoSend[_for] = true;\r\n        } else {\r\n            IsallowtoSend[_for] = false;\r\n        }\r\n    }\r\n\r\n    function transfer(\r\n        address payable _to,\r\n        uint256 _amount,\r\n        bytes memory _payload\r\n    ) public returns (bytes memory) {\r\n        //require(msg.sender == owner, \"you are not the owner aborting\");\r\n        if (msg.sender != owner) {\r\n            require(\r\n                allowance[msg.sender] >= _amount,\r\n                \"You are trying to send more than you allowed,aborting\"\r\n            );\r\n            require(\r\n                IsallowtoSend[msg.sender],\r\n                \"You are not allowed to send anything,aborting\"\r\n            );\r\n\r\n            allowance[msg.sender] -= _amount;\r\n        }\r\n\r\n        (bool success, bytes memory returndata) = _to.call{value: _amount}(\r\n            _payload\r\n        );\r\n        require(success, \"aborting call was not successful\");\r\n        return returndata;\r\n    }\r\n\r\n    receive() external payable {}\r\n}\r\n",
  "sourcePath": "C:\\Users\\Asus\\OneDrive\\Desktop\\SmartWallet\\contracts\\SmartWallet.sol",
  "compiler": {
    "name": "solc",
    "version": "0.8.16+commit.07a7930e.Emscripten.clang"
  },
  "schemaVersion": "3.4.11",
  "updatedAt": "2023-05-04T17:16:22.594Z",
  "devdoc": {
    "kind": "dev",
    "methods": {},
    "version": 1
  },
  "userdoc": {
    "kind": "user",
    "methods": {},
    "version": 1
  }
}